22:03:07.625368 IP 192.168.1.10.55839 > 192.168.1.1.53: 16712+ A? inbox.google.com. (34)
	0x0000:  4500 003e 7666 4000 4011 40ed c0a8 010a  E..>vf@.@.@.....
	0x0010:  c0a8 0101 da1f 0035 002a 69a4 4148 0100  .......5.*i.AH..
	0x0020:  0001 0000 0000 0000 0569 6e62 6f78 0667  .........inbox.g
	0x0030:  6f6f 676c 6503 636f 6d00 0001 0001       oogle.com.....
22:03:07.640790 IP 192.168.1.1.53 > 192.168.1.10.55839: 16712 4/0/0 A 74.125.200.18, A 74.125.200.83, A 74.125.200.17, A 74.125.200.19 (98)
	0x0000:  4500 007e 0000 4000 4011 b713 c0a8 0101  E..~..@.@.......
	0x0010:  c0a8 010a 0035 da1f 006a 9a47 4148 8180  .....5...j.GAH..
	0x0020:  0001 0004 0000 0000 0569 6e62 6f78 0667  .........inbox.g
	0x0030:  6f6f 676c 6503 636f 6d00 0001 0001 c00c  oogle.com.......
	0x0040:  0001 0001 0000 00e3 0004 4a7d c812 c00c  ..........J}....
	0x0050:  0001 0001 0000 00e3 0004 4a7d c853 c00c  ..........J}.S..
	0x0060:  0001 0001 0000 00e3 0004 4a7d c811 c00c  ..........J}....
	0x0070:  0001 0001 0000 00e3 0004 4a7d c813       ..........J}..
22:03:07.640860 IP 192.168.1.10 > 192.168.1.1: ICMP 192.168.1.10 udp port 55839 unreachable, length 134
	0x0000:  45c0 009a e2cc 0000 4001 137b c0a8 010a  E.......@..{....
	0x0010:  c0a8 0101 0303 80d4 0000 0000 4500 007e  ............E..~
	0x0020:  0000 4000 4011 b713 c0a8 0101 c0a8 010a  ..@.@...........
	0x0030:  0035 da1f 006a 9a47 4148 8180 0001 0004  .5...j.GAH......
	0x0040:  0000 0000 0569 6e62 6f78 0667 6f6f 676c  .....inbox.googl
	0x0050:  6503 636f 6d00 0001 0001 c00c 0001 0001  e.com...........
	0x0060:  0000 00e3 0004 4a7d c812 c00c 0001 0001  ......J}........
	0x0070:  0000 00e3 0004 4a7d c853 c00c 0001 0001  ......J}.S......
	0x0080:  0000 00e3 0004 4a7d c811 c00c 0001 0001  ......J}........
	0x0090:  0000 00e3 0004 4a7d c813                 ......J}..
22:03:14.588050 ARP, Request who-has 192.168.1.10 tell 192.168.1.1, length 28
	0x0000:  0001 0800 0604 0001 bc9c 3106 b8a0 c0a8  ..........1.....
	0x0010:  0101 0000 0000 0000 c0a8 010a            ............
22:03:14.588079 ARP, Reply 192.168.1.10 is-at 08:11:96:a5:65:78, length 28
	0x0000:  0001 0800 0604 0002 0811 96a5 6578 c0a8  ............ex..
	0x0010:  010a bc9c 3106 b8a0 c0a8 0101            ....1.......
22:03:34.328263 ARP, Request who-has 192.168.1.10 tell 192.168.1.1, length 28
	0x0000:  0001 0800 0604 0001 bc9c 3106 b8a0 c0a8  ..........1.....
	0x0010:  0101 0000 0000 0000 c0a8 010a            ............
22:03:34.328290 ARP, Reply 192.168.1.10 is-at 08:11:96:a5:65:78, length 28
	0x0000:  0001 0800 0604 0002 0811 96a5 6578 c0a8  ............ex..
	0x0010:  010a bc9c 3106 b8a0 c0a8 0101            ....1.......
22:03:36.106479 IP 192.168.1.10.4179 > 192.168.1.1.53: 65502+ A? clients4.google.com. (37)
	0x0000:  4500 0041 86ce 4000 4011 3082 c0a8 010a  E..A..@.@.0.....
	0x0010:  c0a8 0101 1053 0035 002d 300f ffde 0100  .....S.5.-0.....
	0x0020:  0001 0000 0000 0000 0863 6c69 656e 7473  .........clients
	0x0030:  3406 676f 6f67 6c65 0363 6f6d 0000 0100  4.google.com....
	0x0040:  01                                       .
22:03:36.123027 IP 192.168.1.1.53 > 192.168.1.10.4179: 65502 16/0/0 CNAME clients.l.google.com., A 103.28.94.237, A 103.28.94.249, A 103.28.94.221, A 103.28.94.241, A 103.28.94.222, A 103.28.94.211, A 103.28.94.230, A 103.28.94.226, A 103.28.94.215, A 103.28.94.234, A 103.28.94.219, A 103.28.94.236, A 103.28.94.245, A 103.28.94.207, A 103.28.94.251 (301)
	0x0000:  4500 0149 0000 4000 4011 b648 c0a8 0101  E..I..@.@..H....
	0x0010:  c0a8 010a 0035 1053 0135 2ebb ffde 8180  .....5.S.5......
	0x0020:  0001 0010 0000 0000 0863 6c69 656e 7473  .........clients
	0x0030:  3406 676f 6f67 6c65 0363 6f6d 0000 0100  4.google.com....
	0x0040:  01c0 0c00 0500 0100 0000 0b00 0c07 636c  ..............cl
	0x0050:  6965 6e74 7301 6cc0 15c0 3100 0100 0100  ients.l...1.....
	0x0060:  0000 7300 0467 1c5e edc0 3100 0100 0100  ..s..g.^..1.....
	0x0070:  0000 7300 0467 1c5e f9c0 3100 0100 0100  ..s..g.^..1.....
	0x0080:  0000 7300 0467 1c5e ddc0 3100 0100 0100  ..s..g.^..1.....
	0x0090:  0000 7300 0467 1c5e f1c0 3100 0100 0100  ..s..g.^..1.....
	0x00a0:  0000 7300 0467 1c5e dec0 3100 0100 0100  ..s..g.^..1.....
	0x00b0:  0000 7300 0467 1c5e d3c0 3100 0100 0100  ..s..g.^..1.....
	0x00c0:  0000 7300 0467 1c5e e6c0 3100 0100 0100  ..s..g.^..1.....
	0x00d0:  0000 7300 0467 1c5e e2c0 3100 0100 0100  ..s..g.^..1.....
	0x00e0:  0000 7300 0467 1c5e d7c0 3100 0100 0100  ..s..g.^..1.....
	0x00f0:  0000 7300 0467 1c5e eac0 3100 0100 0100  ..s..g.^..1.....
	0x0100:  0000 7300 0467 1c5e dbc0 3100 0100 0100  ..s..g.^..1.....
	0x0110:  0000 7300 0467 1c5e ecc0 3100 0100 0100  ..s..g.^..1.....
	0x0120:  0000 7300 0467 1c5e f5c0 3100 0100 0100  ..s..g.^..1.....
	0x0130:  0000 7300 0467 1c5e cfc0 3100 0100 0100  ..s..g.^..1.....
	0x0140:  0000 7300 0467 1c5e fb                   ..s..g.^.
22:03:36.123063 IP 192.168.1.10 > 192.168.1.1: ICMP 192.168.1.10 udp port 4179 unreachable, length 337
	0x0000:  45c0 0165 f8c8 0000 4001 fcb3 c0a8 010a  E..e....@.......
	0x0010:  c0a8 0101 0303 819f 0000 0000 4500 0149  ............E..I
	0x0020:  0000 4000 4011 b648 c0a8 0101 c0a8 010a  ..@.@..H........
	0x0030:  0035 1053 0135 2ebb ffde 8180 0001 0010  .5.S.5..........
	0x0040:  0000 0000 0863 6c69 656e 7473 3406 676f  .....clients4.go
	0x0050:  6f67 6c65 0363 6f6d 0000 0100 01c0 0c00  ogle.com........
	0x0060:  0500 0100 0000 0b00 0c07 636c 6965 6e74  ..........client
	0x0070:  7301 6cc0 15c0 3100 0100 0100 0000 7300  s.l...1.......s.
	0x0080:  0467 1c5e edc0 3100 0100 0100 0000 7300  .g.^..1.......s.
	0x0090:  0467 1c5e f9c0 3100 0100 0100 0000 7300  .g.^..1.......s.
	0x00a0:  0467 1c5e ddc0 3100 0100 0100 0000 7300  .g.^..1.......s.
	0x00b0:  0467 1c5e f1c0 3100 0100 0100 0000 7300  .g.^..1.......s.
	0x00c0:  0467 1c5e dec0 3100 0100 0100 0000 7300  .g.^..1.......s.
	0x00d0:  0467 1c5e d3c0 3100 0100 0100 0000 7300  .g.^..1.......s.
	0x00e0:  0467 1c5e e6c0 3100 0100 0100 0000 7300  .g.^..1.......s.
	0x00f0:  0467 1c5e e2c0 3100 0100 0100 0000 7300  .g.^..1.......s.
	0x0100:  0467 1c5e d7c0 3100 0100 0100 0000 7300  .g.^..1.......s.
	0x0110:  0467 1c5e eac0 3100 0100 0100 0000 7300  .g.^..1.......s.
	0x0120:  0467 1c5e dbc0 3100 0100 0100 0000 7300  .g.^..1.......s.
	0x0130:  0467 1c5e ecc0 3100 0100 0100 0000 7300  .g.^..1.......s.
	0x0140:  0467 1c5e f5c0 3100 0100 0100 0000 7300  .g.^..1.......s.
	0x0150:  0467 1c5e cfc0 3100 0100 0100 0000 7300  .g.^..1.......s.
	0x0160:  0467 1c5e fb                             .g.^.
22:03:54.067402 ARP, Request who-has 192.168.1.10 tell 192.168.1.1, length 28
	0x0000:  0001 0800 0604 0001 bc9c 3106 b8a0 c0a8  ..........1.....
	0x0010:  0101 0000 0000 0000 c0a8 010a            ............
22:03:54.067434 ARP, Reply 192.168.1.10 is-at 08:11:96:a5:65:78, length 28
	0x0000:  0001 0800 0604 0002 0811 96a5 6578 c0a8  ............ex..
	0x0010:  010a bc9c 3106 b8a0 c0a8 0101            ....1.......
22:04:13.809475 ARP, Request who-has 192.168.1.10 tell 192.168.1.1, length 28
	0x0000:  0001 0800 0604 0001 bc9c 3106 b8a0 c0a8  ..........1.....
	0x0010:  0101 0000 0000 0000 c0a8 010a            ............
22:04:13.809505 ARP, Reply 192.168.1.10 is-at 08:11:96:a5:65:78, length 28
	0x0000:  0001 0800 0604 0002 0811 96a5 6578 c0a8  ............ex..
	0x0010:  010a bc9c 3106 b8a0 c0a8 0101            ....1.......
22:04:37.050113 ARP, Request who-has 192.168.1.10 tell 192.168.1.1, length 28
	0x0000:  0001 0800 0604 0001 bc9c 3106 b8a0 c0a8  ..........1.....
	0x0010:  0101 0000 0000 0000 c0a8 010a            ............
22:04:37.050132 ARP, Reply 192.168.1.10 is-at 08:11:96:a5:65:78, length 28
	0x0000:  0001 0800 0604 0002 0811 96a5 6578 c0a8  ............ex..
	0x0010:  010a bc9c 3106 b8a0 c0a8 0101            ....1.......
22:04:37.919005 IP 192.168.1.10.55410 > 192.168.1.1.53: 11094+ A? github.com. (28)
	0x0000:  4500 0038 95fa 4000 4011 215f c0a8 010a  E..8..@.@.!_....
	0x0010:  c0a8 0101 d872 0035 0024 6c85 2b56 0100  .....r.5.$l.+V..
	0x0020:  0001 0000 0000 0000 0667 6974 6875 6203  .........github.
	0x0030:  636f 6d00 0001 0001                      com.....
22:04:37.946775 IP 192.168.1.1.53 > 192.168.1.10.55410: 11094 1/0/0 A 192.30.253.113 (44)
	0x0000:  4500 0048 0000 4000 4011 b749 c0a8 0101  E..H..@.@..I....
	0x0010:  c0a8 010a 0035 d872 0034 6d4a 2b56 8180  .....5.r.4mJ+V..
	0x0020:  0001 0001 0000 0000 0667 6974 6875 6203  .........github.
	0x0030:  636f 6d00 0001 0001 c00c 0001 0001 0000  com.............
	0x0040:  00f6 0004 c01e fd71                      .......q
22:04:37.946838 IP 192.168.1.10 > 192.168.1.1: ICMP 192.168.1.10 udp port 55410 unreachable, length 80
	0x0000:  45c0 0064 277a 0000 4001 cf03 c0a8 010a  E..d'z..@.......
	0x0010:  c0a8 0101 0303 809e 0000 0000 4500 0048  ............E..H
	0x0020:  0000 4000 4011 b749 c0a8 0101 c0a8 010a  ..@.@..I........
	0x0030:  0035 d872 0034 6d4a 2b56 8180 0001 0001  .5.r.4mJ+V......
	0x0040:  0000 0000 0667 6974 6875 6203 636f 6d00  .....github.com.
	0x0050:  0001 0001 c00c 0001 0001 0000 00f6 0004  ................
	0x0060:  c01e fd71                                ...q
22:04:59.831391 ARP, Request who-has 192.168.1.10 tell 192.168.1.1, length 28
	0x0000:  0001 0800 0604 0001 bc9c 3106 b8a0 c0a8  ..........1.....
	0x0010:  0101 0000 0000 0000 c0a8 010a            ............
22:04:59.831426 ARP, Reply 192.168.1.10 is-at 08:11:96:a5:65:78, length 28
	0x0000:  0001 0800 0604 0002 0811 96a5 6578 c0a8  ............ex..
	0x0010:  010a bc9c 3106 b8a0 c0a8 0101            ....1.......
22:05:08.615161 IP 192.168.1.10.37526 > 192.168.1.1.53: 61230+ A? mail.google.com. (33)
	0x0000:  4500 003d 9bcc 4000 4011 1b88 c0a8 010a  E..=..@.@.......
	0x0010:  c0a8 0101 9296 0035 0029 6f5b ef2e 0100  .......5.)o[....
	0x0020:  0001 0000 0000 0000 046d 6169 6c06 676f  .........mail.go
	0x0030:  6f67 6c65 0363 6f6d 0000 0100 01         ogle.com.....
22:05:08.645657 IP 192.168.1.1.53 > 192.168.1.10.37526: 61230 5/0/0 CNAME googlemail.l.google.com., A 74.125.200.83, A 74.125.200.18, A 74.125.200.17, A 74.125.200.19 (124)
	0x0000:  4500 0098 0000 4000 4011 b6f9 c0a8 0101  E.....@.@.......
	0x0010:  c0a8 010a 0035 9296 0084 18ce ef2e 8180  .....5..........
	0x0020:  0001 0005 0000 0000 046d 6169 6c06 676f  .........mail.go
	0x0030:  6f67 6c65 0363 6f6d 0000 0100 01c0 0c00  ogle.com........
	0x0040:  0500 0100 0053 8b00 0f0a 676f 6f67 6c65  .....S....google
	0x0050:  6d61 696c 016c c011 c02d 0001 0001 0000  mail.l...-......
	0x0060:  0057 0004 4a7d c853 c02d 0001 0001 0000  .W..J}.S.-......
	0x0070:  0057 0004 4a7d c812 c02d 0001 0001 0000  .W..J}...-......
	0x0080:  0057 0004 4a7d c811 c02d 0001 0001 0000  .W..J}...-......
	0x0090:  0057 0004 4a7d c813                      .W..J}..
22:05:08.645699 IP 192.168.1.10 > 192.168.1.1: ICMP 192.168.1.10 udp port 37526 unreachable, length 160
	0x0000:  45c0 00b4 3c0a 0000 4001 ba23 c0a8 010a  E...<...@..#....
	0x0010:  c0a8 0101 0303 80ee 0000 0000 4500 0098  ............E...
	0x0020:  0000 4000 4011 b6f9 c0a8 0101 c0a8 010a  ..@.@...........
	0x0030:  0035 9296 0084 18ce ef2e 8180 0001 0005  .5..............
	0x0040:  0000 0000 046d 6169 6c06 676f 6f67 6c65  .....mail.google
	0x0050:  0363 6f6d 0000 0100 01c0 0c00 0500 0100  .com............
	0x0060:  0053 8b00 0f0a 676f 6f67 6c65 6d61 696c  .S....googlemail
	0x0070:  016c c011 c02d 0001 0001 0000 0057 0004  .l...-.......W..
	0x0080:  4a7d c853 c02d 0001 0001 0000 0057 0004  J}.S.-.......W..
	0x0090:  4a7d c812 c02d 0001 0001 0000 0057 0004  J}...-.......W..
	0x00a0:  4a7d c811 c02d 0001 0001 0000 0057 0004  J}...-.......W..
	0x00b0:  4a7d c813                                J}..
22:05:18.610704 ARP, Request who-has 192.168.1.10 tell 192.168.1.1, length 28
	0x0000:  0001 0800 0604 0001 bc9c 3106 b8a0 c0a8  ..........1.....
	0x0010:  0101 0000 0000 0000 c0a8 010a            ............
22:05:18.610729 ARP, Reply 192.168.1.10 is-at 08:11:96:a5:65:78, length 28
	0x0000:  0001 0800 0604 0002 0811 96a5 6578 c0a8  ............ex..
	0x0010:  010a bc9c 3106 b8a0 c0a8 0101            ....1.......
22:05:37.393093 ARP, Request who-has 192.168.1.10 tell 192.168.1.1, length 28
	0x0000:  0001 0800 0604 0001 bc9c 3106 b8a0 c0a8  ..........1.....
	0x0010:  0101 0000 0000 0000 c0a8 010a            ............
22:05:37.393127 ARP, Reply 192.168.1.10 is-at 08:11:96:a5:65:78, length 28
	0x0000:  0001 0800 0604 0002 0811 96a5 6578 c0a8  ............ex..
	0x0010:  010a bc9c 3106 b8a0 c0a8 0101            ....1.......
22:05:52.606847 IP 192.168.1.10.25562 > 192.168.1.1.53: 10322+ A? googleads.g.doubleclick.net. (45)
	0x0000:  4500 0049 a585 4000 4011 11c3 c0a8 010a  E..I..@.@.......
	0x0010:  c0a8 0101 63da 0035 0035 c5e6 2852 0100  ....c..5.5..(R..
	0x0020:  0001 0000 0000 0000 0967 6f6f 676c 6561  .........googlea
	0x0030:  6473 0167 0b64 6f75 626c 6563 6c69 636b  ds.g.doubleclick
	0x0040:  036e 6574 0000 0100 01                   .net.....
22:05:52.610785 IP 192.168.1.1.53 > 192.168.1.10.25562: 10322 2/0/0 CNAME pagead46.l.doubleclick.net., A 172.217.26.66 (101)
	0x0000:  4500 0081 0000 4000 4011 b710 c0a8 0101  E.....@.@.......
	0x0010:  c0a8 010a 0035 63da 006d 2a75 2852 8180  .....5c..m*u(R..
	0x0020:  0001 0002 0000 0000 0967 6f6f 676c 6561  .........googlea
	0x0030:  6473 0167 0b64 6f75 626c 6563 6c69 636b  ds.g.doubleclick
	0x0040:  036e 6574 0000 0100 01c0 0c00 0500 0100  .net............
	0x0050:  0000 c100 1c08 7061 6765 6164 3436 016c  ......pagead46.l
	0x0060:  0b64 6f75 626c 6563 6c69 636b 036e 6574  .doubleclick.net
	0x0070:  00c0 3900 0100 0100 0000 e500 04ac d91a  ..9.............
	0x0080:  42                                       B
22:06:00.173449 ARP, Request who-has 192.168.1.10 tell 192.168.1.1, length 28
	0x0000:  0001 0800 0604 0001 bc9c 3106 b8a0 c0a8  ..........1.....
	0x0010:  0101 0000 0000 0000 c0a8 010a            ............
22:06:00.173483 ARP, Reply 192.168.1.10 is-at 08:11:96:a5:65:78, length 28
	0x0000:  0001 0800 0604 0002 0811 96a5 6578 c0a8  ............ex..
	0x0010:  010a bc9c 3106 b8a0 c0a8 0101            ....1.......
22:06:17.722905 IP 192.168.1.10.6675 > 192.168.1.1.53: 3408+ A? plus.google.com. (33)
	0x0000:  4500 003d aa9b 4000 4011 0cb9 c0a8 010a  E..=..@.@.......
	0x0010:  c0a8 0101 1a13 0035 0029 b7ae 0d50 0100  .......5.)...P..
	0x0020:  0001 0000 0000 0000 0470 6c75 7306 676f  .........plus.go
	0x0030:  6f67 6c65 0363 6f6d 0000 0100 01         ogle.com.....
22:06:17.726680 IP 192.168.1.1.53 > 192.168.1.10.6675: 3408 15/0/0 A 103.28.94.249, A 103.28.94.251, A 103.28.94.221, A 103.28.94.234, A 103.28.94.219, A 103.28.94.237, A 103.28.94.207, A 103.28.94.245, A 103.28.94.222, A 103.28.94.236, A 103.28.94.230, A 103.28.94.226, A 103.28.94.211, A 103.28.94.241, A 103.28.94.215 (273)
	0x0000:  4500 012d 0000 4000 4011 b664 c0a8 0101  E..-..@.@..d....
	0x0010:  c0a8 010a 0035 1a13 0119 6560 0d50 8180  .....5....e`.P..
	0x0020:  0001 000f 0000 0000 0470 6c75 7306 676f  .........plus.go
	0x0030:  6f67 6c65 0363 6f6d 0000 0100 01c0 0c00  ogle.com........
	0x0040:  0100 0100 0000 3d00 0467 1c5e f9c0 0c00  ......=..g.^....
	0x0050:  0100 0100 0000 3d00 0467 1c5e fbc0 0c00  ......=..g.^....
	0x0060:  0100 0100 0000 3d00 0467 1c5e ddc0 0c00  ......=..g.^....
	0x0070:  0100 0100 0000 3d00 0467 1c5e eac0 0c00  ......=..g.^....
	0x0080:  0100 0100 0000 3d00 0467 1c5e dbc0 0c00  ......=..g.^....
	0x0090:  0100 0100 0000 3d00 0467 1c5e edc0 0c00  ......=..g.^....
	0x00a0:  0100 0100 0000 3d00 0467 1c5e cfc0 0c00  ......=..g.^....
	0x00b0:  0100 0100 0000 3d00 0467 1c5e f5c0 0c00  ......=..g.^....
	0x00c0:  0100 0100 0000 3d00 0467 1c5e dec0 0c00  ......=..g.^....
	0x00d0:  0100 0100 0000 3d00 0467 1c5e ecc0 0c00  ......=..g.^....
	0x00e0:  0100 0100 0000 3d00 0467 1c5e e6c0 0c00  ......=..g.^....
	0x00f0:  0100 0100 0000 3d00 0467 1c5e e2c0 0c00  ......=..g.^....
	0x0100:  0100 0100 0000 3d00 0467 1c5e d3c0 0c00  ......=..g.^....
	0x0110:  0100 0100 0000 3d00 0467 1c5e f1c0 0c00  ......=..g.^....
	0x0120:  0100 0100 0000 3d00 0467 1c5e d7         ......=..g.^.
22:06:22.953696 ARP, Request who-has 192.168.1.10 tell 192.168.1.1, length 28
	0x0000:  0001 0800 0604 0001 bc9c 3106 b8a0 c0a8  ..........1.....
	0x0010:  0101 0000 0000 0000 c0a8 010a            ............
22:06:22.953724 ARP, Reply 192.168.1.10 is-at 08:11:96:a5:65:78, length 28
	0x0000:  0001 0800 0604 0002 0811 96a5 6578 c0a8  ............ex..
	0x0010:  010a bc9c 3106 b8a0 c0a8 01