00:06:02.461582 ARP, Request who-has 192.168.1.10 tell 192.168.1.1, length 28
	0x0000:  0001 0800 0604 0001 bc9c 3106 b8a0 c0a8  ..........1.....
	0x0010:  0101 0000 0000 0000 c0a8 010a            ............
00:06:02.461601 ARP, Reply 192.168.1.10 is-at 08:11:96:a5:65:78, length 28
	0x0000:  0001 0800 0604 0002 0811 96a5 6578 c0a8  ............ex..
	0x0010:  010a bc9c 3106 b8a0 c0a8 0101            ....1.......
00:06:14.503057 IP 192.168.1.10.18580 > 192.168.1.1.53: 18337+ A? i9.ytimg.com. (30)
	0x0000:  4500 003a b923 4000 4011 fe33 c0a8 010a  E..:.#@.@..3....
	0x0010:  c0a8 0101 4894 0035 0026 9515 47a1 0100  ....H..5.&..G...
	0x0020:  0001 0000 0000 0000 0269 3905 7974 696d  .........i9.ytim
	0x0030:  6703 636f 6d00 0001 0001                 g.com.....
00:06:14.511069 IP 192.168.1.1.53 > 192.168.1.10.18580: 18337 2/0/0 CNAME ytimg.l.google.com., A 172.217.24.110 (78)
	0x0000:  4500 006a 0000 4000 4011 b727 c0a8 0101  E..j..@.@..'....
	0x0010:  c0a8 010a 0035 4894 0056 ca27 47a1 8180  .....5H..V.'G...
	0x0020:  0001 0002 0000 0000 0269 3905 7974 696d  .........i9.ytim
	0x0030:  6703 636f 6d00 0001 0001 c00c 0005 0001  g.com...........
	0x0040:  0000 0898 0014 0579 7469 6d67 016c 0667  .......ytimg.l.g
	0x0050:  6f6f 676c 6503 636f 6d00 c02a 0001 0001  oogle.com..*....
	0x0060:  0000 0068 0004 acd9 186e                 ...h.....n
00:06:14.511096 IP 192.168.1.10 > 192.168.1.1: ICMP 192.168.1.10 udp port 18580 unreachable, length 114
	0x0000:  45c0 0086 16d4 0000 4001 df87 c0a8 010a  E.......@.......
	0x0010:  c0a8 0101 0303 80c0 0000 0000 4500 006a  ............E..j
	0x0020:  0000 4000 4011 b727 c0a8 0101 c0a8 010a  ..@.@..'........
	0x0030:  0035 4894 0056 ca27 47a1 8180 0001 0002  .5H..V.'G.......
	0x0040:  0000 0000 0269 3905 7974 696d 6703 636f  .....i9.ytimg.co
	0x0050:  6d00 0001 0001 c00c 0005 0001 0000 0898  m...............
	0x0060:  0014 0579 7469 6d67 016c 0667 6f6f 676c  ...ytimg.l.googl
	0x0070:  6503 636f 6d00 c02a 0001 0001 0000 0068  e.com..*.......h
	0x0080:  0004 acd9 186e                           .....n
00:06:32.871906 ARP, Request who-has 192.168.1.10 tell 192.168.1.1, length 28
	0x0000:  0001 0800 0604 0001 bc9c 3106 b8a0 c0a8  ..........1.....
	0x0010:  0101 0000 0000 0000 c0a8 010a            ............
00:06:32.871943 ARP, Reply 192.168.1.10 is-at 08:11:96:a5:65:78, length 28
	0x0000:  0001 0800 0604 0002 0811 96a5 6578 c0a8  ............ex..
	0x0010:  010a bc9c 3106 b8a0 c0a8 0101            ....1.......
00:07:03.281903 ARP, Request who-has 192.168.1.10 tell 192.168.1.1, length 28
	0x0000:  0001 0800 0604 0001 bc9c 3106 b8a0 c0a8  ..........1.....
	0x0010:  0101 0000 0000 0000 c0a8 010a            ............
00:07:03.281939 ARP, Reply 192.168.1.10 is-at 08:11:96:a5:65:78, length 28
	0x0000:  0001 0800 0604 0002 0811 96a5 6578 c0a8  ............ex..
	0x0010:  010a bc9c 3106 b8a0 c0a8 0101            ....1.......
00:07:39.012372 ARP, Request who-has 192.168.1.10 tell 192.168.1.1, length 28
	0x0000:  0001 0800 0604 0001 bc9c 3106 b8a0 c0a8  ..........1.....
	0x0010:  0101 0000 0000 0000 c0a8 010a            ............
00:07:39.012387 ARP, Reply 192.168.1.10 is-at 08:11:96:a5:65:78, length 28
	0x0000:  0001 0800 0604 0002 0811 96a5 6578 c0a8  ............ex..
	0x0010:  010a bc9c 3106 b8a0 c0a8 0101            ....1.......
00:07:46.656923 IP 192.168.1.10.51879 > 192.168.1.1.53: 49181+ A? r3---sn-2a5thxqp5-jb3e.googlevideo.com. (56)
	0x0000:  4500 0054 e9b5 4000 4011 cd87 c0a8 010a  E..T..@.@.......
	0x0010:  c0a8 0101 caa7 0035 0040 c83b c01d 0100  .......5.@.;....
	0x0020:  0001 0000 0000 0000 1672 332d 2d2d 736e  .........r3---sn
	0x0030:  2d32 6135 7468 7871 7035 2d6a 6233 650b  -2a5thxqp5-jb3e.
	0x0040:  676f 6f67 6c65 7669 6465 6f03 636f 6d00  googlevideo.com.
	0x0050:  0001 0001                                ....
00:07:46.662037 IP 192.168.1.1.53 > 192.168.1.10.51879: 49181 2/0/0 CNAME r3.sn-2a5thxqp5-jb3e.googlevideo.com., A 110.50.80.206 (122)
	0x0000:  4500 0096 0000 4000 4011 b6fb c0a8 0101  E.....@.@.......
	0x0010:  c0a8 010a 0035 caa7 0082 18a6 c01d 8180  .....5..........
	0x0020:  0001 0002 0000 0000 1672 332d 2d2d 736e  .........r3---sn
	0x0030:  2d32 6135 7468 7871 7035 2d6a 6233 650b  -2a5thxqp5-jb3e.
	0x0040:  676f 6f67 6c65 7669 6465 6f03 636f 6d00  googlevideo.com.
	0x0050:  0001 0001 c00c 0005 0001 0000 020e 0026  ...............&
	0x0060:  0272 3311 736e 2d32 6135 7468 7871 7035  .r3.sn-2a5thxqp5
	0x0070:  2d6a 6233 650b 676f 6f67 6c65 7669 6465  -jb3e.googlevide
	0x0080:  6f03 636f 6d00 c044 0001 0001 0000 066d  o.com..D.......m
	0x0090:  0004 6e32 50ce                           ..n2P.
00:08:09.422524 ARP, Request who-has 192.168.1.10 tell 192.168.1.1, length 28
	0x0000:  0001 0800 0604 0001 bc9c 3106 b8a0 c0a8  ..........1.....
	0x0010:  0101 0000 0000 0000 c0a8 010a            ............
00:08:09.422541 ARP, Reply 192.168.1.10 is-at 08:11:96:a5:65:78, length 28
	0x0000:  0001 0800 0604 0002 0811 96a5 6578 c0a8  ............ex..
	0x0010:  010a bc9c 3106 b8a0 c0a8 0101            ....1.......
00:08:23.750356 IP 192.168.1.10.55885 > 192.168.1.1.53: 43093+ A? github.com. (28)
	0x0000:  4500 0038 07aa 4000 4011 afaf c0a8 010a  E..8..@.@.......
	0x0010:  c0a8 0101 da4d 0035 0024 edaa a855 0100  .....M.5.$...U..
	0x0020:  0001 0000 0000 0000 0667 6974 6875 6203  .........github.
	0x0030:  636f 6d00 0001 0001                      com.....
00:08:23.765370 IP 192.168.1.1.53 > 192.168.1.10.55885: 43093 1/4/0 A 192.30.253.113 (130)
	0x0000:  4500 009e 0000 4000 4011 b6f3 c0a8 0101  E.....@.@.......
	0x0010:  c0a8 010a 0035 da4d 008a 25ce a855 8180  .....5.M..%..U..
	0x0020:  0001 0001 0004 0000 0667 6974 6875 6203  .........github.
	0x0030:  636f 6d00 0001 0001 c00c 0001 0001 0000  com.............
	0x0040:  012c 0004 c01e fd71 c00c 0002 0001 0000  .,.....q........
	0x0050:  cef5 0014 036e 7332 0370 3136 0664 796e  .....ns2.p16.dyn
	0x0060:  6563 7403 6e65 7400 c00c 0002 0001 0000  ect.net.........
	0x0070:  cef5 0006 036e 7334 c03c c00c 0002 0001  .....ns4.<......
	0x0080:  0000 cef5 0006 036e 7333 c03c c00c 0002  .......ns3.<....
	0x0090:  0001 0000 cef5 0006 036e 7331 c03c       .........ns1.<
00:08:23.765397 IP 192.168.1.10 > 192.168.1.1: ICMP 192.168.1.10 udp port 55885 unreachable, length 166
	0x0000:  45c0 00ba 32bd 0000 4001 c36a c0a8 010a  E...2...@..j....
	0x0010:  c0a8 0101 0303 80f4 0000 0000 4500 009e  ............E...
	0x0020:  0000 4000 4011 b6f3 c0a8 0101 c0a8 010a  ..@.@...........
	0x0030:  0035 da4d 008a 25ce a855 8180 0001 0001  .5.M..%..U......
	0x0040:  0004 0000 0667 6974 6875 6203 636f 6d00  .....github.com.
	0x0050:  0001 0001 c00c 0001 0001 0000 012c 0004  .............,..
	0x0060:  c01e fd71 c00c 0002 0001 0000 cef5 0014  ...q............
	0x0070:  036e 7332 0370 3136 0664 796e 6563 7403  .ns2.p16.dynect.
	0x0080:  6e65 7400 c00c 0002 0001 0000 cef5 0006  net.............
	0x0090:  036e 7334 c03c c00c 0002 0001 0000 cef5  .ns4.<..........
	0x00a0:  0006 036e 7333 c03c c00c 0002 0001 0000  ...ns3.<........
	0x00b0:  cef5 0006 036e 7331 c03c                 .....ns1.<
00:08:39.833152 ARP, Request who-has 192.168.1.10 tell 192.168.1.1, length 28
	0x0000:  0001 0800 0604 0001 bc9c 3106 b8a0 c0a8  ..........1.....
	0x0010:  0101 0000 0000 0000 c0a8 010a            ............
00:08:39.833193 ARP, Reply 192.168.1.10 is-at 08:11:96:a5:65:78, length 28
	0x0000:  0001 0800 0604 0002 0811 96a5 6578 c0a8  ............ex..
	0x0010:  010a bc9c 3106 b8a0 c0a8 0101            ....1.......
00:08:47.141670 IP 192.168.1.10.52534 > 192.168.1.1.53: 37497+ A? plus.google.com. (33)
	0x0000:  4500 003d 1274 4000 4011 a4e0 c0a8 010a  E..=.t@.@.......
	0x0010:  c0a8 0101 cd36 0035 0029 7f61 9279 0100  .....6.5.).a.y..
	0x0020:  0001 0000 0000 0000 0470 6c75 7306 676f  .........plus.go
	0x0030:  6f67 6c65 0363 6f6d 0000 0100 01         ogle.com.....
00:08:47.158633 IP 192.168.1.1.53 > 192.168.1.10.52534: 37497 15/0/0 A 103.28.94.215, A 103.28.94.230, A 103.28.94.211, A 103.28.94.241, A 103.28.94.245, A 103.28.94.249, A 103.28.94.222, A 103.28.94.226, A 103.28.94.237, A 103.28.94.219, A 103.28.94.236, A 103.28.94.251, A 103.28.94.234, A 103.28.94.221, A 103.28.94.207 (273)
	0x0000:  4500 012d 0000 4000 4011 b664 c0a8 0101  E..-..@.@..d....
	0x0010:  c0a8 010a 0035 cd36 0119 dd08 9279 8180  .....5.6.....y..
	0x0020:  0001 000f 0000 0000 0470 6c75 7306 676f  .........plus.go
	0x0030:  6f67 6c65 0363 6f6d 0000 0100 01c0 0c00  ogle.com........
	0x0040:  0100 0100 0000 ed00 0467 1c5e d7c0 0c00  .........g.^....
	0x0050:  0100 0100 0000 ed00 0467 1c5e e6c0 0c00  .........g.^....
	0x0060:  0100 0100 0000 ed00 0467 1c5e d3c0 0c00  .........g.^....
	0x0070:  0100 0100 0000 ed00 0467 1c5e f1c0 0c00  .........g.^....
	0x0080:  0100 0100 0000 ed00 0467 1c5e f5c0 0c00  .........g.^....
	0x0090:  0100 0100 0000 ed00 0467 1c5e f9c0 0c00  .........g.^....
	0x00a0:  0100 0100 0000 ed00 0467 1c5e dec0 0c00  .........g.^....
	0x00b0:  0100 0100 0000 ed00 0467 1c5e e2c0 0c00  .........g.^....
	0x00c0:  0100 0100 0000 ed00 0467 1c5e edc0 0c00  .........g.^....
	0x00d0:  0100 0100 0000 ed00 0467 1c5e dbc0 0c00  .........g.^....
	0x00e0:  0100 0100 0000 ed00 0467 1c5e ecc0 0c00  .........g.^....
	0x00f0:  0100 0100 0000 ed00 0467 1c5e fbc0 0c00  .........g.^....
	0x0100:  0100 0100 0000 ed00 0467 1c5e eac0 0c00  .........g.^....
	0x0110:  0100 0100 0000 ed00 0467 1c5e ddc0 0c00  .........g.^....
	0x0120:  0100 0100 0000 ed00 0467 1c5e cf         .........g.^.
00:08:47.158683 IP 192.168.1.10 > 192.168.1.1: ICMP 192.168.1.10 udp port 52534 unreachable, length 309
	0x0000:  45c0 0149 43f7 0000 4001 b1a1 c0a8 010a  E..IC...@.......
	0x0010:  c0a8 0101 0303 8183 0000 0000 4500 012d  ............E..-
	0x0020:  0000 4000 4011 b664 c0a8 0101 c0a8 010a  ..@.@..d........
	0x0030:  0035 cd36 0119 dd08 9279 8180 0001 000f  .5.6.....y......
	0x0040:  0000 0000 0470 6c75 7306 676f 6f67 6c65  .....plus.google
	0x0050:  0363 6f6d 0000 0100 01c0 0c00 0100 0100  .com............
	0x0060:  0000 ed00 0467 1c5e d7c0 0c00 0100 0100  .....g.^........
	0x0070:  0000 ed00 0467 1c5e e6c0 0c00 0100 0100  .....g.^........
	0x0080:  0000 ed00 0467 1c5e d3c0 0c00 0100 0100  .....g.^........
	0x0090:  0000 ed00 0467 1c5e f1c0 0c00 0100 0100  .....g.^........
	0x00a0:  0000 ed00 0467 1c5e f5c0 0c00 0100 0100  .....g.^........
	0x00b0:  0000 ed00 0467 1c5e f9c0 0c00 0100 0100  .....g.^........
	0x00c0:  0000 ed00 0467 1c5e dec0 0c00 0100 0100  .....g.^........
	0x00d0:  0000 ed00 0467 1c5e e2c0 0c00 0100 0100  .....g.^........
	0x00e0:  0000 ed00 0467 1c5e edc0 0c00 0100 0100  .....g.^........
	0x00f0:  0000 ed00 0467 1c5e dbc0 0c00 0100 0100  .....g.^........
	0x0100:  0000 ed00 0467 1c5e ecc0 0c00 0100 0100  .....g.^........
	0x0110:  0000 ed00 0467 1c5e fbc0 0c00 0100 0100  .....g.^........
	0x0120:  0000 ed00 0467 1c5e eac0 0c00 0100 0100  .....g.^........
	0x0130:  0000 ed00 0467 1c5e ddc0 0c00 0100 0100  .....g.^........
	0x0140:  0000 ed00 0467 1c5e cf                   .....g.^.
00:09:14.255538 ARP, Request who-has 192.168.1.10 tell 192.168.1.1, length 28
	0x0000:  0001 0800 0604 0001 bc9c 3106 b8a0 c0a8  ..........1.....
	0x0010:  0101 0000 0000 0000 c0a8 010a            ............
00:09:14.255587 ARP, Reply 192.168.1.10 is-at 08:11:96:a5:65:78, length 28
	0x0000:  0001 0800 0604 0002 0811 96a5 6578 c0a8  ............ex..
	0x0010:  010a bc9c 3106 b8a0 c0a8 0101            ....1.......
00:09:44.665730 ARP, Request who-has 192.168.1.10 tell 192.168.1.1, length 28
	0x0000:  0001 0800 0604 0001 bc9c 3106 b8a0 c0a8  ..........1.....
	0x0010:  0101 0000 0000 0000 c0a8 010a            ............
00:09:44.665765 ARP, Reply 192.168.1.10 is-at 08:11:96:a5:65:78, length 28
	0x0000:  0001 0800 0604 0002 0811 96a5 6578 c0a8  ............ex..
	0x0010:  010a bc9c 3106 b8a0 c0a8 0101            ....1.......
00:09:46.002514 IP 192.168.1.10.58879 > 192.168.1.1.53: 37271+ A? clients4.google.com. (37)
	0x0000:  4500 0041 287d 4000 4011 8ed3 c0a8 010a  E..A(}@.@.......
	0x0010:  c0a8 0101 e5ff 0035 002d c8a9 9197 0100  .......5.-......
	0x0020:  0001 0000 0000 0000 0863 6c69 656e 7473  .........clients
	0x0030:  3406 676f 6f67 6c65 0363 6f6d 0000 0100  4.google.com....
	0x0040:  01                                       .
00:09:46.051133 IP 192.168.1.1.53 > 192.168.1.10.58879: 37271 16/0/0 CNAME clients.l.google.com., A 103.28.94.221, A 103.28.94.237, A 103.28.94.236, A 103.28.94.211, A 103.28.94.219, A 103.28.94.251, A 103.28.94.207, A 103.28.94.230, A 103.28.94.249, A 103.28.94.215, A 103.28.94.241, A 103.28.94.234, A 103.28.94.226, A 103.28.94.222, A 103.28.94.245 (301)
	0x0000:  4500 0149 0000 4000 4011 b648 c0a8 0101  E..I..@.@..H....
	0x0010:  c0a8 010a 0035 e5ff 0135 6a57 9197 8180  .....5...5jW....
	0x0020:  0001 0010 0000 0000 0863 6c69 656e 7473  .........clients
	0x0030:  3406 676f 6f67 6c65 0363 6f6d 0000 0100  4.google.com....
	0x0040:  01c0 0c00 0500 0100 0001 0b00 0c07 636c  ..............cl
	0x0050:  6965 6e74 7301 6cc0 15c0 3100 0100 0100  ients.l...1.....
	0x0060:  0000 4600 0467 1c5e ddc0 3100 0100 0100  ..F..g.^..1.....
	0x0070:  0000 4600 0467 1c5e edc0 3100 0100 0100  ..F..g.^..1.....
	0x0080:  0000 4600 0467 1c5e ecc0 3100 0100 0100  ..F..g.^..1.....
	0x0090:  0000 4600 0467 1c5e d3c0 3100 0100 0100  ..F..g.^..1.....
	0x00a0:  0000 4600 0467 1c5e dbc0 3100 0100 0100  ..F..g.^..1.....
	0x00b0:  0000 4600 0467 1c5e fbc0 3100 0100 0100  ..F..g.^..1.....
	0x00c0:  0000 4600 0467 1c5e cfc0 3100 0100 0100  ..F..g.^..1.....
	0x00d0:  0000 4600 0467 1c5e e6c0 3100 0100 0100  ..F..g.^..1.....
	0x00e0:  0000 4600 0467 1c5e f9c0 3100 0100 0100  ..F..g.^..1.....
	0x00f0:  0000 4600 0467 1c5e d7c0 3100 0100 0100  ..F..g.^..1.....
	0x0100:  0000 4600 0467 1c5e f1c0 3100 0100 0100  ..F..g.^..1.....
	0x0110:  0000 4600 0467 1c5e eac0 3100 0100 0100  ..F..g.^..1.....
	0x0120:  0000 4600 0467 1c5e e2c0 3100 0100 0100  ..F..g.^..1.....
	0x0130:  0000 4600 0467 1c5e dec0 3100 0100 0100  ..F..g.^..1.....
	0x0140:  0000 4600 0467 1c5e f5                   ..F..g.^.
00:10:12.655966 IP 192.168.1.10.52902 > 192.168.1.1.53: 59851+ A? i9.ytimg.com. (30)
	0x0000:  4500 003a 2b47 4000 4011 8c10 c0a8 010a  E..:+G@.@.......
	0x0010:  c0a8 0101 cea6 0035 0026 6cd8 e9cb 0100  .......5.&l.....
	0x0020:  0001 0000 0000 0000 0269 3905 7974 696d  .........i9.ytim
	0x0030:  6703 636f 6d00 0001 0001                 g.com.....
00:10:12.669822 IP 192.168.1.1.53 > 192.168.1.10.52902: 59851 2/0/0 CNAME ytimg.l.google.com., A 216.58.221.78 (75)
	0x0000:  4500 0067 0000 4000 4011 b72a c0a8 0101  E..g..@.@..*....
	0x0010:  c0a8 010a 0035 cea6 0053 55fe e9cb 8180  .....5...SU.....
	0x0020:  0001 0002 0000 0000 0269 3905 7974 696d  .........i9.ytim
	0x0030:  6703 636f 6d00 0001 0001 c00c 0005 0001  g.com...........
	0x0040:  0000 07aa 0011 0579 7469 6d67 016c 0667  .......ytimg.l.g
	0x0050:  6f6f 676c 65c0 15c0 2a00 0100 0100 0000  oogle...*.......
	0x0060:  d300 04d8 3add 4e                        ....:.N
00:10:12.669855 IP 192.168.1.10 > 192.168.1.1: ICMP 192.168.1.10 udp port 52902 unreachable, length 111
	0x0000:  45c0 0083 6eb4 0000 4001 87aa c0a8 010a  E...n...@.......
	0x0010:  c0a8 0101 0303 80bd 0000 0000 4500 0067  ............E..g
	0x0020:  0000 4000 4011 b72a c0a8 0101 c0a8 010a  ..@.@..*........
	0x0030:  0035 cea6 0053 55fe e9cb 8180 0001 0002  .5...SU.........
	0x0040:  0000 0000 0269 3905 7974 696d 6703 636f  .....i9.ytimg.co
	0x0050:  6d00 0001 0001 c00c 0005 0001 0000 07aa  m...............
	0x0060:  0011 0579 7469 6d67 016c 0667 6f6f 676c  ...ytimg.l.googl
	0x0070:  65c0 15c0 2a00 0100 0100 0000 d300 04d8  e...*...........
	0x0080:  3add 4e                                  :.N
00:10:19.075291 ARP, Request who-has 192.168.1.10 tell 192.168.1.1, length 28
	0x0000:  0001 0800 0604 0001 bc9c 3106 b8a0 c0a8  ..........1.....
	0x0010:  0101 0000 0000 0000 c0a8 010a            ............
00:10:19.075306 ARP, Reply 192.168.1.10 is-at 08:11:96:a5:65:78, length 28
	0x0000:  0001 0800 0604 0002 0811 96a5 6578 c0a8  ............ex..
	0x0010:  010a bc9c 3106 b8a0 c0a8 0101            ....1.......
00:10:41.806344 ARP, Request who-has 192.168.1.10 tell 192.168.1.1, length 28
	0x0000:  0001 0800 0604 0001 bc9c 3106 b8a0 c0a8  ..........1.....
	0x0010:  0101 0000 0000 0000 c0a8 010a            ............
00:10:41.806358 ARP, Reply 192.168.1.10 is-at 08:11:96:a5:65:78, length 28
	0x0000:  0001 0800 0604 0002 0811 96a5 6578 c0a8  ............ex..
	0x0010:  010a bc9c 3106 b8a0 c0a8 0101            ....1.......
00:10:56.955265 IP 192.168.1.10.60759 > 192.168.1.1.53: 32801+ A? safebrowsing.google.com. (41)
	0x0000:  4500 0045 44ff 4000 4011 724d c0a8 010a  E..ED.@.@.rM....
	0x0010:  c0a8 0101 ed57 0035 0031 c7e0 8021 0100  .....W.5.1...!..
	0x0020:  0001 0000 0000 0000 0c73 6166 6562 726f  .........safebro
	0x0030:  7773 696e 6706 676f 6f67 6c65 0363 6f6d  wsing.google.com
	0x0040:  0000 0100 01                             .....
00:10:56.973080 IP 192.168.1.1.53 > 192.168.1.10.60759: 32801 5/0/0 CNAME sb.l.google.com., A 74.125.130.136, A 74.125.130.190, A 74.125.130.93, A 74.125.130.91 (124)
	0x0000:  4500 0098 0000 4000 4011 b6f9 c0a8 0101  E.....@.@.......
	0x0010:  c0a8 010a 0035 ed57 0084 3b42 8021 8180  .....5.W..;B.!..
	0x0020:  0001 0005 0000 0000 0c73 6166 6562 726f  .........safebro
	0x0030:  7773 696e 6706 676f 6f67 6c65 0363 6f6d  wsing.google.com
	0x0040:  0000 0100 01c0 0c00 0500 0100 08dc 7c00  ..............|.
	0x0050:  0702 7362 016c c019 c035 0001 0001 0000  ..sb.l...5......
	0x0060:  00c2 0004 4a7d 8288 c035 0001 0001 0000  ....J}...5......
	0x0070:  00c2 0004 4a7d 82be c035 0001 0001 0000  ....J}...5......
	0x0080:  00c2 0004 4a7d 825d c035 0001 0001 0000  ....J}.].5......
	0x0090:  00c2 0004 4a7d 825b                      ....J}.[
00:10:57.070392 IP 192.168.1.10.16503 > 192.168.1.1.53: 25306+ A? safebrowsing.google.com. (41)
	0x0000:  4500 0045 4502 4000 4011 724a c0a8 010a  E..EE.@.@.rJ....
	0x0010:  c0a8 0101 4077 0035 0031 9208 62da 0100  ....@w.5.1..b...
	0x0020:  0001 0000 0000 0000 0c73 6166 6562 726f  .........safebro
	0x0030:  7773 696e 6706 676f 6f67 6c65 0363 6f6d  wsing.google.com
	0x0040:  0000 0100 01                             .....
00:10:57.077905 IP 192.168.1.1.53 > 192.168.1.10.16503: 25306 5/0/0 CNAME sb.l.google.com., A 74.125.130.91, A 74.125.130.93, A 74.125.130.190, A 74.125.130.136 (134)
	0x0000:  4500 00a2 0000 4000 4011 b6ef c0a8 0101  E.....@.@.......
	0x0010:  c0a8 010a 0035 4077 008e a8b9 62da 8180  .....5@w....b...
	0x0020:  0001 0005 0000 0000 0c73 6166 6562 726f  .........safebro
	0x0030:  7773 696e 6706 676f 6f67 6c65 0363 6f6d  wsing.google.com
	0x0040:  0000 0100 01c0 0c00 0500 0100 08dc 7c00  ..............|.
	0x0050:  1102 7362 016c 0667 6f6f 676c 6503 636f  ..sb.l.google.co
	0x0060:  6d00 c035 0001 0001 0000 00c2 0004 4a7d  m..5..........J}
	0x0070:  825b c035 0001 0001 0000 00c2 0004 4a7d  .[.5..........J}
	0x0080:  825d c035 0001 0001 0000 00c2 0004 4a7d  .].5..........J}
	0x0090:  82be c035 0001 0001 0000 00c2 0004 4a7d  ...5..........J}
	0x00a0:  8288                                     ..
00:11:03.696856 ARP, Request who-has 192.168.1.10 tell 192.168.1.1, length 28
	0x0000:  0001 0800 0604 0001 bc9c 3106 b8a0 c0a8  ..........1.....
	0x0010:  0101 0000 0000 0000 c0a8 010a            ............
00:11:03.696896 ARP, Reply 192.168.1.10 is-at 08:11:96:a5:65:78, length 28
	0x0000:  0001 0800 0604 0002 0811 96a5 6578 c0a8  ............ex..
	0x0010:  010a bc9c 3106 b8a0 c0a8 0101            ....1.......
00:11:21.588760 ARP, Request who-has 192.168.1.10 tell 192.168.1.1, length 28
	0x0000:  0001 0800 0604 0001 bc9c 3106 b8a0 c0a8  ..........1.....
	0x0010:  0101 0000 0000 0000 c0a8 010a            ............
00:11:21.588805 ARP, Reply 192.168.1.10 is-at 08:11:96:a5:65:78, length 28
	0x0000:  0001 0800 0604 0002 0811 96a5 6578 c0a8  ............ex..
	0x0010:  010a bc9c 3106 b8a0 c0a8 0101            ....1.......
00:11:44.250081 ARP, Request who-has 192.168.1.10 tell 192.168.1.1, length 28
	0x0000:  0001 0800 0604 0001 bc9c 3106 b8a0 c0a8  ..........1.....
	0x0010:  0101 0000 0000 0000 c0a8 010a            ............
00:11:44.250116 ARP, Reply 192.168.1.10 is-at 08:11:96:a5:65:78, length 28
	0x0000:  0001 0800 0604 0002 0811 96a5 6578 c0a8  ............ex..
	0x0010:  010a bc9c 3106 b8a0 c0a8 0101            ....1.......
00:11:44.780392 IP 192.168.1.10.53353 > 192.168.1.1.53: 22322+ A? raw.githubusercontent.com. (43)
	0x0000:  4500 0047 4572 4000 4011 71d8 c0a8 010a  E..GEr@.@.q.....
	0x0010:  c0a8 0101 d069 0035 0033 fbc8 5732 0100  .....i.5.3..W2..
	0x0020:  0001 0000 0000 0000 0372 6177 1167 6974  .........raw.git
	0x0030:  6875 6275 7365 7263 6f6e 7465 6e74 0363  hubusercontent.c
	0x0040:  6f6d 0000 0100 01                        om.....
00:11:44.809644 IP 192.168.1.1.53 > 192.168.1.10.53353: 22322 6/0/0 CNAME github.map.fastly.net., CNAME prod.github.map.fastlylb.net., A 151.101.192.133, A 151.101.128.133, A 151.101.64.133, A 151.101.0.133 (181)
	0x0000:  4500 00d1 0000 4000 4011 b6c0 c0a8 0101  E.....@.@.......
	0x0010:  c0a8 010a 0035 d069 00bd 98c9 5732 8180  .....5.i....W2..
	0x0020:  0001 0006 0000 0000 0372 6177 1167 6974  .........raw.git
	0x0030:  6875 6275 7365 7263 6f6e 7465 6e74 0363  hubusercontent.c
	0x0040:  6f6d 0000 0100 01c0 0c00 0500 0100 0000  om..............
	0x0050:  0100 1706 6769 7468 7562 036d 6170 0666  ....github.map.f
	0x0060:  6173 746c 7903 6e65 7400 c037 0005 0001  astly.net..7....
	0x0070:  0000 0d39 001b 0470 726f 6406 6769 7468  ...9...prod.gith
	0x0080:  7562 036d 6170 0866 6173 746c 796c 62c0  ub.map.fastlylb.
	0x0090:  49c0 5a00 0100 0100 0000 0e00 0497 65c0  I.Z...........e.
	0x00a0:  85c0 5a00 0100 0100 0000 0e00 0497 6580  ..Z...........e.
	0x00b0:  85c0 5a00 0100 0100 0000 0e00 0497 6540  ..Z...........e@
	0x00c0:  85c0 5a00 0100 0100 0000 0e00 0497 6500  ..Z...........e.
	0x00d0:  85                                       .
00:11:44.809669 IP 192.168.1.10 > 192.168.1.1: ICMP 192.168.1.10 udp port 53353 unreachable, length 217
	0x0000:  45c0 00ed 7fa0 0000 4001 7654 c0a8 010a  E.......@.vT....
	0x0010:  c0a8 0101 0303 8127 0000 0000 4500 00d1  .......'....E...
	0x0020:  0000 4000 4011 b6c0 c0a8 0101 c0a8 010a  ..@.@...........
	0x0030:  0035 d069 00bd 98c9 5732 8180 0001 0006  .5.i....W2......
	0x0040:  0000 0000 0372 6177 1167 6974 6875 6275  .....raw.githubu
	0x0050:  7365 7263 6f6e 7465 6e74 0363 6f6d 0000  sercontent.com..
	0x0060:  0100 01c0 0c00 0500 0100 0000 0100 1706  ................
	0x0070:  6769 7468 7562 036d 6170 0666 6173 746c  github.map.fastl
	0x0080:  7903 6e65 7400 c037 0005 0001 0000 0d39  y.net..7.......9
	0x0090:  001b 0470 726f 6406 6769 7468 7562 036d  ...prod.github.m
	0x00a0:  6170 0866 6173 746c 796c 62c0 49c0 5a00  ap.fastlylb.I.Z.
	0x00b0:  0100 0100 0000 0e00 0497 65c0 85c0 5a00  ..........e...Z.
	0x00c0:  0100 0100 0000 0e00 0497 6580 85c0 5a00  ..........e...Z.
	0x00d0:  0100 0100 0000 0e00 0497 6540 85c0 5a00  ..........e@..Z.
	0x00e0:  0100 0100 0000 0e00 0497 6500 85         ..........e..
00:12:02.137370 ARP, Request who-has 192.168.1.10 tell 192.168.1.1, length 28
	0x0000:  0001 0800 0604 0001 bc9c 3106 b8a0 c0a8  ..........1.....
	0x0010:  0101 0000 0000 0000 c0a8 010a            ............
00:12:02.137403 ARP, Reply 192.168.1.10 is-at 08:11:96:a5:65:78, length 28
	0x0000:  0001 0800 0604 0002 0811 96a5 6578 c0a8  ............ex..
	0x0010:  010a bc9c 3106 b8a0 c0a8 0101            ....1.......
00:12:12.157149 IP 192.168.1.10.52033 > 192.168.1.1.53: 10550+ A? clients6.google.com. (37)
	0x0000:  4500 0041 5d3d 4000 4011 5a13 c0a8 010a  E..A]=@.@.Z.....
	0x0010:  c0a8 0101 cb41 0035 002d 49c9 2936 0100  .....A.5.-I.)6..
	0x0020:  0001 0000 0000 0000 0863 6c69 656e 7473  .........clients
	0x0030:  3606 676f 6f67 6c65 0363 6f6d 0000 0100  6.google.com....
	0x0040:  01                                       .
00:12:12.171774 IP 192.168.1.1.53 > 192.168.1.10.52033: 10550 16/0/0 CNAME clients.l.google.com., A 103.28.94.251, A 103.28.94.219, A 103.28.94.236, A 103.28.94.237, A 103.28.94.230, A 103.28.94.245, A 103.28.94.241, A 103.28.94.211, A 103.28.94.234, A 103.28.94.249, A 103.28.94.222, A 103.28.94.226, A 103.28.94.221, A 103.28.94.215, A 103.28.94.207 (301)
	0x0000:  4500 0149 0000 4000 4011 b648 c0a8 0101  E..I..@.@..H....
	0x0010:  c0a8 010a 0035 cb41 0135 de6d 2936 8180  .....5.A.5.m)6..
	0x0020:  0001 0010 0000 0000 0863 6c69 656e 7473  .........clients
	0x0030:  3606 676f 6f67 6c65 0363 6f6d 0000 0100  6.google.com....
	0x0040:  01c0 0c00 0500 0100 0001 0300 0c07 636c  ..............cl
	0x0050:  6965 6e74 7301 6cc0 15c0 3100 0100 0100  ients.l...1.....
	0x0060:  0000 e100 0467 1c5e fbc0 3100 0100 0100  .....g.^..1.....
	0x0070:  0000 e100 0467 1c5e dbc0 3100 0100 0100  .....g.^..1.....
	0x0080:  0000 e100 0467 1c5e ecc0 3100 0100 0100  .....g.^..1.....
	0x0090:  0000 e100 0467 1c5e edc0 3100 0100 0100  .....g.^..1.....
	0x00a0:  0000 e100 0467 1c5e e6c0 3100 0100 0100  .....g.^..1.....
	0x00b0:  0000 e100 0467 1c5e f5c0 3100 0100 0100  .....g.^..1.....
	0x00c0:  0000 e100 0467 1c5e f1c0 3100 0100 0100  .....g.^..1.....
	0x00d0:  0000 e100 0467 1c5e d3c0 3100 0100 0100  .....g.^..1.....
	0x00e0:  0000 e100 0467 1c5e eac0 3100 0100 0100  .....g.^..1.....
	0x00f0:  0000 e100 0467 1c5e f9c0 3100 0100 0100  .....g.^..1.....
	0x0100:  0000 e100 0467 1c5e dec0 3100 0100 0100  .....g.^..1.....
	0x0110:  0000 e100 0467 1c5e e2c0 3100 0100 0100  .....g.^..1.....
	0x0120:  0000 e100 0467 1c5e ddc0 3100 0100 0100  .....g.^..1.....
	0x0130:  0000 e100 0467 1c5e d7c0 3100 0100 0100  .....g.^..1.....
	0x0140:  0000 e100 0467 1c5e cf                   .....g.^.
00:12:12.171833 IP 192.168.1.10 > 192.168.1.1: ICMP 192.168.1.10 udp port 52033 unreachable, length 337
	0x0000:  45c0 0165 90e4 0000 4001 6498 c0a8 010a  E..e....@.d.....
	0x0010:  c0a8 0101 0303 819f 0000 0000 4500 0149  ............E..I
	0x0020:  0000 4000 4011 b648 c0a8 0101 c0a8 010a  ..@.@..H........
	0x0030:  0035 cb41 0135 de6d 2936 8180 0001 0010  .5.A.5.m)6......
	0x0040:  0000 0000 0863 6c69 656e 7473 3606 676f  .....clients6.go
	0x0050:  6f67 6c65 0363 6f6d 0000 0100 01c0 0c00  ogle.com........
	0x0060:  0500 0100 0001 0300 0c07 636c 6965 6e74  ..........client
	0x0070:  7301 6cc0 15c0 3100 0100 0100 0000 e100  s.l...1.........
	0x0080:  0467 1c5e fbc0 3100 0100 0100 0000 e100  .g.^..1.........
	0x0090:  0467 1c5e dbc0 3100 0100 0100 0000 e100  .g.^..1.........
	0x00a0:  0467 1c5e ecc0 3100 0100 0100 0000 e100  .g.^..1.........
	0x00b0:  0467 1c5e edc0 3100 0100 0100 0000 e100  .g.^..1.........
	0x00c0:  0467 1c5e e6c0 3100 0100 0100 0000 e100  .g.^..1.........
	0x00d0:  0467 1c5e f5c0 3100 0100 0100 0000 e100  .g.^..1.........
	0x00e0:  0467 1c5e f1c0 3100 0100 0100 0000 e100  .g.^..1.........
	0x00f0:  0467 1c5e d3c0 3100 0100 0100 0000 e100  .g.^..1.........
	0x0100:  0467 1c5e eac0 3100 0100 0100 0000 e100  .g.^..1.........
	0x0110:  0467 1c5e f9c0 3100 0100 0100 0000 e100  .g.^..1.........
	0x0120:  0467 1c5e dec0 3100 0100 0100 0000 e100  .g.^..1.........
	0x0130:  0467 1c5e e2c0 3100 0100 0100 0000 e100  .g.^..1.........
	0x0140:  0467 1c5e ddc0 3100 0100 0100 0000 e100  .g.^..1.........
	0x0150:  0467 1c5e d7c0 3100 0100 0100 0000 e100  .g.^..1.........
	0x0160:  0467 1c5e cf                             .g.^.
00:12:24.029337 ARP, Request who-has 192.168.1.10 tell 192.168.1.1, length 28
	0x0000:  0001 0800 0604 0001 bc9c 3106 b8a0 c0a8  ..........1.....
	0x0010:  0101 0000 0000 0000 c0a8 010a            ............
00:12:24.029360 ARP, Reply 192.168.1.10 is-at 08:11:96:a5:65:78, length 28
	0x0000:  0001 0800 0604 0002 0811 96a5 6578 c0a8  ............ex..
	0x0010:  010a bc9c 3106 b8a0 c0a8 0101            ....1.......
00:12:45.918933 ARP, Request who-has 192.168.1.10 tell 192.168.1.1, length 28
	0x0000:  0001 0800 0604 0001 bc9c 3106 b8a0 c0a8  ..........1.....
	0x0010:  0101 0000 0000 0000 c0a8 010a            ............
00:12:45.918956 ARP, Reply 192.168.1.10 is-at 08:11:96:a5:65:78, length 28
	0x0000:  0001 0800 0604 0002 0811 96a5 6578 c0a8  ............ex..
	0x0010:  010a bc9c 3106 b8a0 c0a8 0101            ....1.......
00:12:49.213939 IP 192.168.1.10.44371 > 192.168.1.1.53: 20558+ A? clients6.google.com. (37)
	0x0000:  4500 0041 6b2a 4000 4011 4c26 c0a8 010a  E..Ak*@.@.L&....
	0x0010:  c0a8 0101 ad53 0035 002d 409f 504e 0100  .....S.5.-@.PN..
	0x0020:  0001 0000 0000 0000 0863 6c69 656e 7473  .........clients
	0x0030:  3606 676f 6f67 6c65 0363 6f6d 0000 0100  6.google.com....
	0x0040:  01                                       .
00:12:49.220091 IP 192.168.1.1.53 > 192.168.1.10.44371: 20558 16/0/0 CNAME clients.l.google.com., A 103.28.94.207, A 103.28.94.215, A 103.28.94.221, A 103.28.94.226, A 103.28.94.222, A 103.28.94.249, A 103.28.94.234, A 103.28.94.211, A 103.28.94.241, A 103.28.94.245, A 103.28.94.230, A 103.28.94.237, A 103.28.94.236, A 103.28.94.219, A 103.28.94.251 (311)
	0x0000:  4500 0153 0000 4000 4011 b63e c0a8 0101  E..S..@.@..>....
	0x0010:  c0a8 010a 0035 ad53 013f 7adf 504e 8180  .....5.S.?z.PN..
	0x0020:  0001 0010 0000 0000 0863 6c69 656e 7473  .........clients
	0x0030:  3606 676f 6f67 6c65 0363 6f6d 0000 0100  6.google.com....
	0x0040:  01c0 0c00 0500 0100 0000 de00 1607 636c  ..............cl
	0x0050:  6965 6e74 7301 6c06 676f 6f67 6c65 0363  ients.l.google.c
	0x0060:  6f6d 00c0 3100 0100 0100 0000 bc00 0467  om..1..........g
	0x0070:  1c5e cfc0 3100 0100 0100 0000 bc00 0467  .^..1..........g
	0x0080:  1c5e d7c0 3100 0100 0100 0000 bc00 0467  .^..1..........g
	0x0090:  1c5e ddc0 3100 0100 0100 0000 bc00 0467  .^..1..........g
	0x00a0:  1c5e e2c0 3100 0100 0100 0000 bc00 0467  .^..1..........g
	0x00b0:  1c5e dec0 3100 0100 0100 0000 bc00 0467  .^..1..........g
	0x00c0:  1c5e f9c0 3100 0100 0100 0000 bc00 0467  .^..1..........g
	0x00d0:  1c5e eac0 3100 0100 0100 0000 bc00 0467  .^..1..........g
	0x00e0:  1c5e d3c0 3100 0100 0100 0000 bc00 0467  .^..1..........g
	0x00f0:  1c5e f1c0 3100 0100 0100 0000 bc00 0467  .^..1..........g
	0x0100:  1c5e f5c0 3100 0100 0100 0000 bc00 0467  .^..1..........g
	0x0110:  1c5e e6c0 3100 0100 0100 0000 bc00 0467  .^..1..........g
	0x0120:  1c5e edc0 3100 0100 0100 0000 bc00 0467  .^..1..........g
	0x0130:  1c5e ecc0 3100 0100 0100 0000 bc00 0467  .^..1..........g
	0x0140:  1c5e dbc0 3100 0100 0100 0000 bc00 0467  .^..1..........g
	0x0150:  1c5e fb                                  .^.
00:12:49.220112 IP 192.168.1.10 > 192.168.1.1: ICMP 192.168.1.10 udp port 44371 unreachable, length 347
	0x0000:  45c0 016f a1fc 0000 4001 5376 c0a8 010a  E..o....@.Sv....
	0x0010:  c0a8 0101 0303 81a9 0000 0000 4500 0153  ............E..S
	0x0020:  0000 4000 4011 b63e c0a8 0101 c0a8 010a  ..@.@..>........
	0x0030:  0035 ad53 013f 7adf 504e 8180 0001 0010  .5.S.?z.PN......
	0x0040:  0000 0000 0863 6c69 656e 7473 3606 676f  .....clients6.go
	0x0050:  6f67 6c65 0363 6f6d 0000 0100 01c0 0c00  ogle.com........
	0x0060:  0500 0100 0000 de00 1607 636c 6965 6e74  ..........client
	0x0070:  7301 6c06 676f 6f67 6c65 0363 6f6d 00c0  s.l.google.com..
	0x0080:  3100 0100 0100 0000 bc00 0467 1c5e cfc0  1..........g.^..
	0x0090:  3100 0100 0100 0000 bc00 0467 1c5e d7c0  1..........g.^..
	0x00a0:  3100 0100 0100 0000 bc00 0467 1c5e ddc0  1..........g.^..
	0x00b0:  3100 0100 0100 0000 bc00 0467 1c5e e2c0  1..........g.^..
	0x00c0:  3100 0100 0100 0000 bc00 0467 1c5e dec0  1..........g.^..
	0x00d0:  3100 0100 0100 0000 bc00 0467 1c5e f9c0  1..........g.^..
	0x00e0:  3100 0100 0100 0000 bc00 0467 1c5e eac0  1..........g.^..
	0x00f0:  3100 0100 0100 0000 bc00 0467 1c5e d3c0  1..........g.^..
	0x0100:  3100 0100 0100 0000 bc00 0467 1c5e f1c0  1..........g.^..
	0x0110:  3100 0100 0100 0000 bc00 0467 1c5e f5c0  1..........g.^..
	0x0120:  3100 0100 0100 0000 bc00 0467 1c5e e6c0  1..........g.^..
	0x0130:  3100 0100 0100 0000 bc00 0467 1c5e edc0  1..........g.^..
	0x0140:  3100 0100 0100 0000 bc00 0467 1c5e ecc0  1..........g.^..
	0x0150:  3100 0100 0100 0000 bc00 0467 1c5e dbc0  1..........g.^..
	0x0160:  3100 0100 0100 0000 bc00 0467 1c5e fb    1..........g.^.
00:13:08.919341 ARP, Request who-has 192.168.1.10 tell 192.168.1.1, length 28
	0x0000:  0001 0800 0604 0001 bc9c 3106 b8a0 c0a8  ..........1.....
	0x0010:  0101 0000 0000 0000 c0a8 010a            ............
00:13:08.919376 ARP, Reply 192.168.1.10 is-at 08:11:96:a5:65:78, length 28
	0x0000:  0001 0800 0604 0002 0811 96a5 6578 c0a8  ............ex..
	0x0010:  010a bc9c 3106 b8a0 c0a8 0101            ....1.......
00:13:31.499040 ARP, Request who-has 192.168.1.10 tell 192.168.1.1, length 28
	0x0000:  0001 0800 0604 0001 bc9c 3106 b8a0 c0a8  ..........1.....
	0x0010:  0101 0000 0000 0000 c0a8 010a            ............
00:13:31.499084 ARP, Reply 192.168.1.10 is-at 08:11:96:a5:65:78, length 28
	0x0000:  0001 0800 0604 0002 0811 96a5 6578 c0a8  ............ex..
	0x0010:  010a bc9c 3106 b8a0 c0a8 0101            ....1.......
00:13:34.114169 IP 192.168.1.10.37444 > 192.168.1.1.53: 52100+ A? inbox.google.com. (34)
	0x0000:  4500 003e 8550 4000 4011 3203 c0a8 010a  E..>.P@.@.2.....
	0x0010:  c0a8 0101 9244 0035 002a 2743 cb84 0100  .....D.5.*'C....
	0x0020:  0001 0000 0000 0000 0569 6e62 6f78 0667  .........inbox.g
	0x0030:  6f6f 676c 6503 636f 6d00 0001 0001       oogle.com.....
00:13:34.127602 IP 192.168.1.1.53 > 192.168.1.10.37444: 52100 1/0/0 A 172.217.24.101 (50)
	0x0000:  4500 004e 0000 4000 4011 b743 c0a8 0101  E..N..@.@..C....
	0x0010:  c0a8 010a 0035 9244 003a 20de cb84 8180  .....5.D.:......
	0x0020:  0001 0001 0000 0000 0569 6e62 6f78 0667  .........inbox.g
	0x0030:  6f6f 676c 6503 636f 6d00 0001 0001 c00c  oogle.com.......
	0x0040:  0001 0001 0000 0072 0004 acd9 1865       .......r.....e
00:13:49.389381 ARP, Request who-has 192.168.1.10 tell 192.168.1.1, length 28
	0x0000:  0001 0800 0604 0001 bc9c 3106 b8a0 c0a8  ..........1.....
	0x0010:  0101 0000 0000 0000 c0a8 010a            ............
00:13:49.389421 ARP, Reply 192.168.1.10 is-at 08:11:96:a5:65:78, length 28
	0x0000:  0001 0800 0604 0002 0811 96a5 6578 c0a8  ............ex..
	0x0010:  010a bc9c 3106 b8a0 c0a8 0101            ....1.......
00:14:04.744484 IP 192.168.1.10.23980 > 192.168.1.1.53: 41648+ A? play.google.com. (33)
	0x0000:  4500 003d 93b7 4000 4011 239d c0a8 010a  E..=..@.@.#.....
	0x0010:  c0a8 0101 5dac 0035 0029 d8c8 a2b0 0100  ....]..5.)......
	0x0020:  0001 0000 0000 0000 0470 6c61 7906 676f  .........play.go
	0x0030:  6f67 6c65 0363 6f6d 0000 0100 01         ogle.com.....
00:14:04.753634 IP 192.168.1.1.53 > 192.168.1.10.23980: 41648 16/0/0 CNAME play.l.google.com., A 103.28.94.207, A 103.28.94.234, A 103.28.94.249, A 103.28.94.221, A 103.28.94.226, A 103.28.94.245, A 103.28.94.215, A 103.28.94.241, A 103.28.94.236, A 103.28.94.251, A 103.28.94.219, A 103.28.94.211, A 103.28.94.230, A 103.28.94.237, A 103.28.94.222 (304)
	0x0000:  4500 014c 0000 4000 4011 b645 c0a8 0101  E..L..@.@..E....
	0x0010:  c0a8 010a 0035 5dac 0138 dd89 a2b0 8180  .....5]..8......
	0x0020:  0001 0010 0000 0000 0470 6c61 7906 676f  .........play.go
	0x0030:  6f67 6c65 0363 6f6d 0000 0100 01c0 0c00  ogle.com........
	0x0040:  0500 0100 0000 8200 1304 706c 6179 016c  ..........play.l
	0x0050:  0667 6f6f 676c 6503 636f 6d00 c02d 0001  .google.com..-..
	0x0060:  0001 0000 00e8 0004 671c 5ecf c02d 0001  ........g.^..-..
	0x0070:  0001 0000 00e8 0004 671c 5eea c02d 0001  ........g.^..-..
	0x0080:  0001 0000 00e8 0004 671c 5ef9 c02d 0001  ........g.^..-..
	0x0090:  0001 0000 00e8 0004 671c 5edd c02d 0001  ........g.^..-..
	0x00a0:  0001 0000 00e8 0004 671c 5ee2 c02d 0001  ........g.^..-..
	0x00b0:  0001 0000 00e8 0004 671c 5ef5 c02d 0001  ........g.^..-..
	0x00c0:  0001 0000 00e8 0004 671c 5ed7 c02d 0001  ........g.^..-..
	0x00d0:  0001 0000 00e8 0004 671c 5ef1 c02d 0001  ........g.^..-..
	0x00e0:  0001 0000 00e8 0004 671c 5eec c02d 0001  ........g.^..-..
	0x00f0:  0001 0000 00e8 0004 671c 5efb c02d 0001  ........g.^..-..
	0x0100:  0001 0000 00e8 0004 671c 5edb c02d 0001  ........g.^..-..
	0x0110:  0001 0000 00e8 0004 671c 5ed3 c02d 0001  ........g.^..-..
	0x0120:  0001 0000 00e8 0004 671c 5ee6 c02d 0001  ........g.^..-..
	0x0130:  0001 0000 00e8 0004 671c 5eed c02d 0001  ........g.^..-..
	0x0140:  0001 0000 00e8 0004 671c 5ede            ........g.^.
00:14:04.753688 IP 192.168.1.10 > 192.168.1.1: ICMP 192.168.1.10 udp port 23980 unreachable, length 340
	0x0000:  45c0 0168 b19b 0000 4001 43de c0a8 010a  E..h....@.C.....
	0x0010:  c0a8 0101 0303 81a2 0000 0000 4500 014c  ............E..L
	0x0020:  0000 4000 4011 b645 c0a8 0101 c0a8 010a  ..@.@..E........
	0x0030:  0035 5dac 0138 dd89 a2b0 8180 0001 0010  .5]..8..........
	0x0040:  0000 0000 0470 6c61 7906 676f 6f67 6c65  .....play.google
	0x0050:  0363 6f6d 0000 0100 01c0 0c00 0500 0100  .com............
	0x0060:  0000 8200 1304 706c 6179 016c 0667 6f6f  ......play.l.goo
	0x0070:  676c 6503 636f 6d00 c02d 0001 0001 0000  gle.com..-......
	0x0080:  00e8 0004 671c 5ecf c02d 0001 0001 0000  ....g.^..-......
	0x0090:  00e8 0004 671c 5eea c02d 0001 0001 0000  ....g.^..-......
	0x00a0:  00e8 0004 671c 5ef9 c02d 0001 0001 0000  ....g.^..-......
	0x00b0:  00e8 0004 671c 5edd c02d 0001 0001 0000  ....g.^..-......
	0x00c0:  00e8 0004 671c 5ee2 c02d 0001 0001 0000  ....g.^..-......
	0x00d0:  00e8 0004 671c 5ef5 c02d 0001 0001 0000  ....g.^..-......
	0x00e0:  00e8 0004 671c 5ed7 c02d 0001 0001 0000  ....g.^..-......
	0x00f0:  00e8 0004 671c 5ef1 c02d 0001 0001 0000  ....g.^..-......
	0x0100:  00e8 0004 671c 5eec c02d 0001 0001 0000  ....g.^..-......
	0x0110:  00e8 0004 671c 5efb c02d 0001 0001 0000  ....g.^..-......
	0x0120:  00e8 0004 671c 5edb c02d 0001 0001 0000  ....g.^..-......
	0x0130:  00e8 0004 671c 5ed3 c02d 0001 0001 0000  ....g.^..-......
	0x0140:  00e8 0004 671c 5ee6 c02d 0001 0001 0000  ....g.^..-......
	0x0150:  00e8 0004 671c 5eed c02d 0001 0001 0000  ....g.^..-......
	0x0160:  00e8 0004 671c 5ede                      ....g.^.
00:14:07.279757 ARP, Request who-has 192.168.1.10 tell 192.168.1.1, length 28
	0x0000:  0001 0800 0604 0001 bc9c 3106 b8a0 c0a8  ..........1.....
	0x0010:  0101 0000 0000 0000 c0a8 010a            ............
00:14:07.279772 ARP, Reply 192.168.1.10 is-at 08:11:96:a5:65:78, length 28
	0x0000:  0001 0800 0604 0002 0811 96a5 6578 c0a8  ............ex..
	0x0010:  010a bc9c 3106 b8a0 c0a8 0101            ....1.......
00:14:25.170352 ARP, Request who-has 192.168.1.10 tell 192.168.1.1, length 28
	0x0000:  0001 0800 0604 0001 bc9c 3106 b8a0 c0a8  ..........1.....
	0x0010:  0101 0000 0000 0000 c0a8 010a            ............
00:14:25.170392 ARP, Reply 192.168.1.10 is-at 08:11:96:a5:65:78, length 28
	0x0000:  0001 0800 0604 0002 0811 96a5 6578 c0a8  ............ex..
	0x0010:  010a bc9c 3106 b8a0 c0a8 0101            ....1.......
00:14:43.060928 ARP, Request who-has 192.168.1.10 tell 192.168.1.1, length 28
	0x0000:  0001 0800 0604 0001 bc9c 3106 b8a0 c0a8  ..........1.....
	0x0010:  0101 0000 0000 0000 c0a8 010a            ............
00:14:43.060962 ARP, Reply 192.168.1.10 is-at 08:11:96:a5:65:78, length 28
	0x0000:  0001 0800 0604 0002 0811 96a5 6578 c0a8  ............ex..
	0x0010:  010a bc9c 3106 b8a0 c0a8 0101            ....1.......
00:15:00.951259 ARP, Request who-has 192.168.1.10 tell 192.168.1.1, length 28
	0x0000:  0001 0800 0604 0001 bc9c 3106 b8a0 c0a8  ..........1.....
	0x0010:  0101 0000 0000 0000 c0a8 010a            ............
00:15:00.951290 ARP, Reply 192.168.1.10 is-at 08:11:96:a5:65:78, length 28
	0x0000:  0001 0800 0604 0002 0811 96a5 6578 c0a8  ............ex..
	0x0010:  010a bc9c 3106 b8a0 c0a8 0101            ....1.......
00:15:04.791589 IP 192.168.1.10.37825 > 192.168.1.1.53: 52008+ A? plus.google.com. (33)
	0x0000:  4500 003d cd81 4000 4011 e9d2 c0a8 010a  E..=..@.@.......
	0x0010:  c0a8 0101 93c1 0035 0029 8027 cb28 0100  .......5.).'.(..
	0x0020:  0001 0000 0000 0000 0470 6c75 7306 676f  .........plus.go
	0x0030:  6f67 6c65 0363 6f6d 0000 0100 01         ogle.com.....
00:15:04.795675 IP 192.168.1.1.53 > 192.168.1.10.37825: 52008 15/0/0 A 119.110.118.215, A 119.110.118.211, A 119.110.118.237, A 119.110.118.222, A 119.110.118.241, A 119.110.118.230, A 119.110.118.226, A 119.110.118.219, A 119.110.118.221, A 119.110.118.249, A 119.110.118.207, A 119.110.118.236, A 119.110.118.234, A 119.110.118.245, A 119.110.118.251 (273)
	0x0000:  4500 012d 0000 4000 4011 b664 c0a8 0101  E..-..@.@..d....
	0x0010:  c0a8 010a 0035 93c1 0119 9076 cb28 8180  .....5.....v.(..
	0x0020:  0001 000f 0000 0000 0470 6c75 7306 676f  .........plus.go
	0x0030:  6f67 6c65 0363 6f6d 0000 0100 01c0 0c00  ogle.com........
	0x0040:  0100 0100 0000 a000 0477 6e76 d7c0 0c00  .........wnv....
	0x0050:  0100 0100 0000 a000 0477 6e76 d3c0 0c00  .........wnv....
	0x0060:  0100 0100 0000 a000 0477 6e76 edc0 0c00  .........wnv....
	0x0070:  0100 0100 0000 a000 0477 6e76 dec0 0c00  .........wnv....
	0x0080:  0100 0100 0000 a000 0477 6e76 f1c0 0c00  .........wnv....
	0x0090:  0100 0100 0000 a000 0477 6e76 e6c0 0c00  .........wnv....
	0x00a0:  0100 0100 0000 a000 0477 6e76 e2c0 0c00  .........wnv....
	0x00b0:  0100 0100 0000 a000 0477 6e76 dbc0 0c00  .........wnv....
	0x00c0:  0100 0100 0000 a000 0477 6e76 ddc0 0c00  .........wnv....
	0x00d0:  0100 0100 0000 a000 0477 6e76 f9c0 0c00  .........wnv....
	0x00e0:  0100 0100 0000 a000 0477 6e76 cfc0 0c00  .........wnv....
	0x00f0:  0100 0100 0000 a000 0477 6e76 ecc0 0c00  .........wnv....
	0x0100:  0100 0100 0000 a000 0477 6e76 eac0 0c00  .........wnv....
	0x0110:  0100 0100 0000 a000 0477 6e76 f5c0 0c00  .........wnv....
	0x0120:  0100 0100 0000 a000 0477 6e76 fb         .........wnv.
00:15:15.713583 IP 192.168.1.10.3066 > 192.168.1.1.53: 54081+ A? static.asm.skype.com. (38)
	0x0000:  4500 0042 d618 4000 4011 e136 c0a8 010a  E..B..@.@..6....
	0x0010:  c0a8 0101 0bfa 0035 002e 58b9 d341 0100  .......5..X..A..
	0x0020:  0001 0000 0000 0000 0673 7461 7469 6303  .........static.
	0x0030:  6173 6d05 736b 7970 6503 636f 6d00 0001  asm.skype.com...
	0x0040:  0001                                     ..
00:15:15.723841 IP 192.168.1.1.53 > 192.168.1.10.3066: 54081 3/0/0 CNAME static-asm-skype.trafficmanager.net., CNAME sa1-authgw.cloudapp.net., A 13.76.38.56 (137)
	0x0000:  4500 00a5 0000 4000 4011 b6ec c0a8 0101  E.....@.@.......
	0x0010:  c0a8 010a 0035 0bfa 0091 8db2 d341 8180  .....5.......A..
	0x0020:  0001 0003 0000 0000 0673 7461 7469 6303  .........static.
	0x0030:  6173 6d05 736b 7970 6503 636f 6d00 0001  asm.skype.com...
	0x0040:  0001 c00c 0005 0001 0000 0caa 0025 1073  .............%.s
	0x0050:  7461 7469 632d 6173 6d2d 736b 7970 650e  tatic-asm-skype.
	0x0060:  7472 6166 6669 636d 616e 6167 6572 036e  trafficmanager.n
	0x0070:  6574 00c0 3200 0500 0100 0000 8500 160a  et..2...........
	0x0080:  7361 312d 6175 7468 6777 0863 6c6f 7564  sa1-authgw.cloud
	0x0090:  6170 70c0 52c0 6300 0100 0100 0000 1d00  app.R.c.........
	0x00a0:  040d 4c26 38                             ..L&8
00:15:15.872125 IP 192.168.1.10.17991 > 192.168.1.1.53: 4098+ A? static-asm.secure.skypeassets.com. (51)
	0x0000:  4500 004f d637 4000 4011 e10a c0a8 010a  E..O.7@.@.......
	0x0010:  c0a8 0101 4647 0035 003b 1109 1002 0100  ....FG.5.;......
	0x0020:  0001 0000 0000 0000 0a73 7461 7469 632d  .........static-
	0x0030:  6173 6d06 7365 6375 7265 0b73 6b79 7065  asm.secure.skype
	0x0040:  6173 7365 7473 0363 6f6d 0000 0100 01    assets.com.....
00:15:15.881905 IP 192.168.1.1.53 > 192.168.1.10.17991: 4098 3/0/0 CNAME 1180c.wpc.azureedge.net., CNAME cs1.wpc.v0cdn.net., A 192.229.145.200 (132)
	0x0000:  4500 00a0 0000 4000 4011 b6f1 c0a8 0101  E.....@.@.......
	0x0010:  c0a8 010a 0035 4647 008c bebb 1002 8180  .....5FG........
	0x0020:  0001 0003 0000 0000 0a73 7461 7469 632d  .........static-
	0x0030:  6173 6d06 7365 6375 7265 0b73 6b79 7065  asm.secure.skype
	0x0040:  6173 7365 7473 0363 6f6d 0000 0100 01c0  assets.com......
	0x0050:  0c00 0500 0100 0006 ee00 1905 3131 3830  ............1180
	0x0060:  6303 7770 6309 617a 7572 6565 6467 6503  c.wpc.azureedge.
	0x0070:  6e65 7400 c03f 0005 0001 0000 06ee 0010  net..?..........
	0x0080:  0363 7331 0377 7063 0576 3063 646e c053  .cs1.wpc.v0cdn.S
	0x0090:  c064 0001 0001 0000 08f3 0004 c0e5 91c8  .d..............
00:15:17.432555 IP 192.168.1.10.40167 > 192.168.1.1.53: 49750+ A? mail.google.com. (33)
	0x0000:  4500 003d d77f 4000 4011 dfd4 c0a8 010a  E..=..@.@.......
	0x0010:  c0a8 0101 9ce7 0035 0029 91e2 c256 0100  .......5.)...V..
	0x0020:  0001 0000 0000 0000 046d 6169 6c06 676f  .........mail.go
	0x0030:  6f67 6c65 0363 6f6d 0000 0100 01         ogle.com.....
00:15:17.442531 IP 192.168.1.1.53 > 192.168.1.10.40167: 49750 2/0/0 CNAME googlemail.l.google.com., A 216.58.199.197 (76)
	0x0000:  4500 0068 0000 4000 4011 b729 c0a8 0101  E..h..@.@..)....
	0x0010:  c0a8 010a 0035 9ce7 0054 1f0d c256 8180  .....5...T...V..
	0x0020:  0001 0002 0000 0000 046d 6169 6c06 676f  .........mail.go
	0x0030:  6f67 6c65 0363 6f6d 0000 0100 01c0 0c00  ogle.com........
	0x0040:  0500 0100 08db 8b00 0f0a 676f 6f67 6c65  ..........google
	0x0050:  6d61 696c 016c c011 c02d 0001 0001 0000  mail.l...-......
	0x0060:  00